{
  "contractName": "MossCoinTransfer",
  "abi": [
    {
      "constant": true,
      "inputs": [],
      "name": "token",
      "outputs": [
        {
          "name": "",
          "type": "address"
        }
      ],
      "payable": false,
      "stateMutability": "view",
      "type": "function"
    },
    {
      "constant": false,
      "inputs": [
        {
          "name": "coins",
          "type": "uint256"
        }
      ],
      "name": "sendMossCoin",
      "outputs": [
        {
          "name": "",
          "type": "bool"
        }
      ],
      "payable": false,
      "stateMutability": "nonpayable",
      "type": "function"
    },
    {
      "constant": false,
      "inputs": [],
      "name": "getBalance",
      "outputs": [
        {
          "name": "",
          "type": "uint256"
        }
      ],
      "payable": false,
      "stateMutability": "nonpayable",
      "type": "function"
    }
  ],
  "bytecode": "0x608060405273738a6a902ff347fb8e28deef824a4754235f0b8b6000806101000a81548173ffffffffffffffffffffffffffffffffffffffff021916908373ffffffffffffffffffffffffffffffffffffffff16021790555073cb06abab41e0cef48a22bf962caf9e825e41a113600160006101000a81548173ffffffffffffffffffffffffffffffffffffffff021916908373ffffffffffffffffffffffffffffffffffffffff1602179055503480156100b957600080fd5b5061039c806100c96000396000f300608060405260043610610057576000357c0100000000000000000000000000000000000000000000000000000000900463ffffffff16806312065fe01461005c578063d9d4178a14610087578063fc0c546a146100cc575b600080fd5b34801561006857600080fd5b50610071610123565b6040518082815260200191505060405180910390f35b34801561009357600080fd5b506100b260048036038101908080359060200190929190505050610221565b604051808215151515815260200191505060405180910390f35b3480156100d857600080fd5b506100e161034b565b604051808273ffffffffffffffffffffffffffffffffffffffff1673ffffffffffffffffffffffffffffffffffffffff16815260200191505060405180910390f35b60008060009054906101000a900473ffffffffffffffffffffffffffffffffffffffff1673ffffffffffffffffffffffffffffffffffffffff166370a08231336040518263ffffffff167c0100000000000000000000000000000000000000000000000000000000028152600401808273ffffffffffffffffffffffffffffffffffffffff1673ffffffffffffffffffffffffffffffffffffffff168152602001915050602060405180830381600087803b1580156101e157600080fd5b505af11580156101f5573d6000803e3d6000fd5b505050506040513d602081101561020b57600080fd5b8101908080519060200190929190505050905090565b60008060009054906101000a900473ffffffffffffffffffffffffffffffffffffffff1673ffffffffffffffffffffffffffffffffffffffff1663a9059cbb600160009054906101000a900473ffffffffffffffffffffffffffffffffffffffff16846040518363ffffffff167c0100000000000000000000000000000000000000000000000000000000028152600401808373ffffffffffffffffffffffffffffffffffffffff1673ffffffffffffffffffffffffffffffffffffffff16815260200182815260200192505050602060405180830381600087803b15801561030957600080fd5b505af115801561031d573d6000803e3d6000fd5b505050506040513d602081101561033357600080fd5b81019080805190602001909291905050509050919050565b6000809054906101000a900473ffffffffffffffffffffffffffffffffffffffff16815600a165627a7a7230582017ceae3984783359837d481656a9fe30d923298cbe76536bc6425325c7f1ff3c0029",
  "source": "pragma solidity ^0.4.17;\r\n\r\n\r\ncontract ERC20 {\r\n    function totalSupply() public constant returns (uint);\r\n    function balanceOf(address tokenOwner) public constant returns (uint balance);\r\n    function allowance(address tokenOwner, address spender) public constant returns (uint remaining);\r\n    function transfer(address to, uint tokens) public returns (bool success);\r\n    function approve(address spender, uint tokens) public returns (bool success);\r\n    function transferFrom(address from, address to, uint tokens) public returns (bool success);\r\n\r\n    event Transfer(address indexed from, address indexed to, uint tokens);\r\n    event Approval(address indexed tokenOwner, address indexed spender, uint tokens);\r\n}\r\n\r\ncontract MossCoinTransfer{\r\n      ERC20 public token = ERC20(0x738A6a902ff347fB8e28DEEf824a4754235f0b8B); // address of MossCoin contract\r\n      address  rr_address = 0xCb06AbAb41E0CeF48a22bf962cAF9E825e41A113; // address of reality reflection\r\n\r\n      function sendMossCoin(uint coins) public returns(bool){\r\n        return token.transfer(rr_address, coins);\r\n      }\r\n\r\n      function getBalance() public returns(uint){\r\n        return token.balanceOf(msg.sender);\r\n      }\r\n\r\n}",
  "sourcePath": "C:\\Users\\rr\\Desktop\\truffle-init-webpack\\contracts\\MossCoinTransfer.sol",
  "compiler": {
    "name": "solc",
    "version": "0.4.24+commit.e67f0147.Emscripten.clang"
  },
  "schemaVersion": "2.0.1",
  "updatedAt": "2018-07-09T02:28:57.831Z"
}